:020000040800F2
:1000000000000220412500089125000891250008E4
:1000100091250008912500089125000800000000A6
:100020000000000000000000000000009125000812
:1000300091250008000000009125000855240008C3
:1000400091250008912500089125000891250008B8
:1000500091250008912500089125000891250008A8
:100060009125000891250008912500089125000898
:100070009125000891250008912500089125000888
:100080009125000891250008912500089125000878
:100090009125000891250008912500089125000868
:1000A0009125000891250008912500089125000858
:1000B0009125000891250008912500089125000848
:1000C0009125000891250008912500089125000838
:1000D0009125000891250008612400089125000859
:1000E0009125000891250008912500089125000818
:1000F0009125000891250008912500089125000808
:1001000091250008912500089125000891250008F7
:100110009125000891250008712400089125000808
:1001200091250008912500089125000891250008D7
:1001300091250008912500089125000891250008C7
:1001400091250008912500089125000891250008B7
:1001500091250008912500089125000891250008A7
:100160009125000891250008912500089125000897
:100170009125000891250008912500080000000045
:080180009125000891250008FB
:1001C00010B5054C237833B9044B13B10448AFF391
:1001D00000800123237010BDB8090020000000003A
:1001E0005C84000808B5034B1BB103490348AFF317
:1001F000008008BD00000000BC0900205C840008ED
:1002000081F0004102E000BF83F0004330B54FEAC7
:1002100041044FEA430594EA050F08BF90EA020F34
:100220001FBF54EA000C55EA020C7FEA645C7FEAC7
:10023000655C00F0E2804FEA5454D4EB5555B8BFEA
:100240006D420CDD2C4480EA020281EA030382EA5B
:10025000000083EA010180EA020281EA0303362DED
:1002600088BF30BD11F0004F4FEA01314FF4801CC0
:100270004CEA113102D0404261EB410113F0004FD2
:100280004FEA03334CEA133302D0524263EB430389
:1002900094EA050F00F0A780A4F10104D5F1200E27
:1002A0000DDB02FA0EFC22FA05F2801841F1000182
:1002B00003FA0EF2801843FA05F359410EE0A5F156
:1002C00020050EF1200E012A03FA0EFC28BF4CF087
:1002D000020C43FA05F3C01851EBE37101F000453D
:1002E00007D54FF0000EDCF1000C7EEB00006EEB4A
:1002F0000101B1F5801F1BD3B1F5001F0CD34908D4
:100300005FEA30004FEA3C0C04F101044FEA44522A
:1003100012F5800F80F09A80BCF1004F08BF5FEAB1
:10032000500C50F1000041EB045141EA050130BD91
:100330005FEA4C0C404141EB0101013C28BFB1F5A3
:10034000801FE9D291F0000F04BF01460020B1FAEE
:1003500081F308BF2033A3F10B03B3F120020CDAC1
:100360000C3208DD02F1140CC2F10C0201FA0CF09F
:1003700021FA02F10CE002F11402D8BFC2F1200C04
:1003800001FA02F120FA0CFCDCBF41EA0C019040BA
:10039000E41AA2BF01EB0451294330BD6FEA040403
:1003A0001F3C1CDA0C340EDC04F11404C4F12002EE
:1003B00020FA04F001FA02F340EA030021FA04F300
:1003C00045EA030130BDC4F10C04C4F1200220FA57
:1003D00002F001FA04F340EA0300294630BD21FA95
:1003E00004F0294630BD94F0000F83F4801306BF5B
:1003F00081F480110134013D4EE77FEA645C18BF4F
:100400007FEA655C29D094EA050F08BF90EA020FE5
:1004100005D054EA000C04BF1946104630BD91EADD
:10042000030F1EBF0021002030BD5FEA545C05D1E0
:100430004000494128BF41F0004130BD14F580041F
:100440003CBF01F5801130BD01F0004545F0FE4193
:1004500041F470014FF0000030BD7FEA645C1ABFC8
:10046000194610467FEA655C1CBF0B46024650EAFF
:10047000013406BF52EA033591EA030F41F400212B
:1004800030BD00BF90F0000F04BF0021704730B5B1
:100490004FF4806404F132044FF000054FF0000186
:1004A00050E700BF90F0000F04BF0021704730B547
:1004B0004FF4806404F1320410F0004548BF40421C
:1004C0004FF000013EE700BF42004FEAE2014FEA71
:1004D00031014FEA02701FBF12F07F4393F07F4F4C
:1004E00081F06051704732F07F4208BF704793F04F
:1004F0007F4F04BF41F40021704730B54FF4607462
:1005000001F0004521F000411CE700BF50EA010264
:1005100008BF704730B54FF000050AE050EA01020D
:1005200008BF704730B511F0004502D5404261EB7D
:1005300041014FF4806404F132045FEA915C3FF4BE
:10054000D8AE4FF003025FEADC0C18BF03325FEA5B
:10055000DC0C18BF033202EBDC02C2F1200300FA0C
:1005600003FC20FA02F001FA03FE40EA0E0021FA31
:1005700002F11444BDE600BF70B54FF0FF0C4CF41F
:10058000E06C1CEA11541DBF1CEA135594EA0C0FD1
:1005900095EA0C0F00F0DEF82C4481EA030621EA0C
:1005A0004C5123EA4C5350EA013518BF52EA033547
:1005B00041F4801143F4801338D0A0FB02CE4FF0F9
:1005C0000005E1FB02E506F00042E0FB03E54FF029
:1005D0000006E1FB03569CF0000F18BF4EF0010E21
:1005E000A4F1FF04B6F5007F64F5407404D25FEA1D
:1005F0004E0E6D4146EB060642EAC62141EA5551D0
:100600004FEAC52040EA5E504FEACE2EB4F1FD0C11
:1006100088BFBCF5E06F1ED8BEF1004F08BF5FEA8F
:10062000500E50F1000041EB045170BD06F0004641
:1006300046EA010140EA020081EA0301B4EB5C04EE
:10064000C2BFD4EB0C0541EA045170BD41F48011E6
:100650004FF0000E013C00F3AB8014F1360FDEBF0B
:10066000002001F0004170BDC4F10004203C35DAE7
:100670000C341BDC04F11404C4F1200500FA05F36A
:1006800020FA04F001FA05F240EA020001F000420B
:1006900021F0004110EBD37021FA04F642EB060181
:1006A0005EEA430E08BF20EAD37070BDC4F10C04AB
:1006B000C4F1200500FA04F320FA05F001FA04F26F
:1006C00040EA020001F0004110EBD37041F100015B
:1006D0005EEA430E08BF20EAD37070BDC4F1200566
:1006E00000FA05F24EEA020E20FA04F301FA05F2CE
:1006F00043EA020321FA04F001F0004121FA04F276
:1007000020EA020000EBD3705EEA430E08BF20EA45
:10071000D37070BD94F0000F0FD101F0004640007F
:1007200041EB010111F4801F08BF013CF7D041EA01
:10073000060195F0000F18BF704703F00046520005
:1007400043EB030313F4801F08BF013DF7D043EAD6
:100750000603704794EA0C0F0CEA135518BF95EA8C
:100760000C0F0CD050EA410618BF52EA4306D1D113
:1007700081EA030101F000414FF0000070BD50EA32
:10078000410606BF1046194652EA430619D094EABC
:100790000C0F02D150EA013613D195EA0C0F05D1A6
:1007A00052EA03361CBF104619460AD181EA0301FA
:1007B00001F0004141F0FE4141F470014FF00000B2
:1007C00070BD41F0FE4141F4780170BD70B54FF04D
:1007D000FF0C4CF4E06C1CEA11541DBF1CEA1355CD
:1007E00094EA0C0F95EA0C0F00F0A7F8A4EB0504AF
:1007F00081EA030E52EA03354FEA013100F08880A6
:100800004FEA03334FF0805545EA131343EA12636E
:100810004FEA022245EA111545EA10654FEA002623
:100820000EF000419D4208BF964244F1FD0404F5DC
:10083000407402D25B084FEA3202B61A65EB030538
:100840005B084FEA32024FF480104FF4002CB6EBF5
:10085000020E75EB030E22BFB61A754640EA0C0075
:100860005B084FEA3202B6EB020E75EB030E22BFB5
:10087000B61A754640EA5C005B084FEA3202B6EBF6
:10088000020E75EB030E22BFB61A754640EA9C00B5
:100890005B084FEA3202B6EB020E75EB030E22BF85
:1008A000B61A754640EADC0055EA060E18D04FEA43
:1008B000051545EA16754FEA06164FEAC30343EAE3
:1008C00052734FEAC2025FEA1C1CC0D111F4801FB0
:1008D0000BD141EA00014FF000004FF0004CB6E7A9
:1008E00011F4801F04BF01430020B4F1FD0C88BF48
:1008F000BCF5E06F3FF6AFAEB5EB030C04BFB6EB53
:10090000020C5FEA500C50F1000041EB045170BD45
:100910000EF0004E4EEA113114EB5C04C2BFD4EB72
:100920000C0541EA045170BD41F480114FF0000EF6
:10093000013C90E645EA060E8DE60CEA135594EA72
:100940000C0F08BF95EA0C0F3FF43BAF94EA0C0F75
:100950000AD150EA01347FF434AF95EA0C0F7FF4EA
:1009600025AF104619462CE795EA0C0F06D152EA3E
:1009700003353FF4FDAE1046194622E750EA410622
:1009800018BF52EA43067FF4C5AE50EA41047FF433
:100990000DAF52EA43057FF4EBAE12E74A0011D2E5
:1009A00012F5001211D20DD56FF47873B3EB6252C9
:1009B0000ED44FEAC12343F0004343EA505323FAD5
:1009C00002F070474FF00000704750EA013002D14A
:1009D0004FF0FF3070474FF00000704780F000404C
:1009E00002E000BF81F0004142001FBF5FEA410307
:1009F00092EA030F7FEA226C7FEA236C6AD04FEA07
:100A00001262D2EB1363C1BFD2184140484041404B
:100A1000B8BF5B42192B88BF704710F0004F40F4FD
:100A2000000020F07F4018BF404211F0004F41F419
:100A3000000121F07F4118BF494292EA030F3FD0E5
:100A4000A2F1010241FA03FC10EB0C00C3F12003F8
:100A500001FA03F100F0004302D5494260EB400087
:100A6000B0F5000F13D3B0F1807F06D340084FEAF2
:100A7000310102F10102FE2A51D2B1F1004F40EBE7
:100A8000C25008BF20F0010040EA0300704749004F
:100A900040EB0000013A28BFB0F5000FEDD2B0FAEC
:100AA00080FCACF1080CB2EB0C0200FA0CF0AABF0F
:100AB00000EBC25052421843BCBFD04018437047AD
:100AC00092F0000F81F4000106BF80F400000132B3
:100AD000013BB5E74FEA41037FEA226C18BF7FEA8A
:100AE000236C21D092EA030F04D092F0000F08BFCC
:100AF0000846704790EA010F1CBF0020704712F0B3
:100B00007F4F04D1400028BF40F00040704712F1F1
:100B100000723CBF00F50000704700F0004343F056
:100B2000FE4040F4000070477FEA226216BF08468C
:100B30007FEA23630146420206BF5FEA412390EA4F
:100B4000010F40F4800070474FF0000304E000BF45
:100B500010F0004348BF40425FEA000C08BF7047F6
:100B600043F0964301464FF000001CE050EA0102BA
:100B700008BF70474FF000030AE000BF50EA0102CF
:100B800008BF704711F0004302D5404261EB4101BC
:100B90005FEA010C02BF84460146002043F0B643E1
:100BA00008BFA3F18053A3F50003BCFA8CF2083A06
:100BB000A3EBC25310DB01FA02FC634400FA02FC0F
:100BC000C2F12002BCF1004F20FA02F243EB020016
:100BD00008BF20F00100704702F1200201FA02FC78
:100BE000C2F1200250EA4C0021FA02F243EB02006B
:100BF00008BF20EADC70704753B94AB9002908BF22
:100C000000281CBF4FF0FF314FF0FF3000F074B9E7
:100C1000ADF1080C6DE904CE00F006F8DDF804E053
:100C2000DDE9022304B070472DE9F047089E0D4628
:100C300004468846002B4DD18A42944668D9B2FAC0
:100C400082F252B101FA02F3C2F1200120FA01F15D
:100C50000CFA02FC41EA030894404FEA1C45210CBF
:100C6000B8FBF5FE1FFA8CF705FB1E8341EA034330
:100C70000EFB07F199420BD91CEB03030EF1FF3079
:100C800080F01E81994240F21B81AEF1020E634456
:100C90005B1AA4B2B3FBF5F005FB103344EA03443E
:100CA00000FB07F7A7420AD91CEB040400F1FF334D
:100CB00080F00881A74240F2058164440238E41BB9
:100CC00040EA0E4000211EB1D4400023C6E9004393
:100CD000BDE8F0878B4208D9002E00F0EE8000219D
:100CE000C6E900050846BDE8F087B3FA83F100299C
:100CF0004AD1AB4202D3824200F2F980841A65EBFA
:100D0000030301209846002EE2D0C6E90048DFE741
:100D100002B9FFDEB2FA82F2002A40F09180A1EB24
:100D20000C054FEA1C471FFA8CFE0121B5FBF7F3B7
:100D300007FB1350250C45EA00450EFB03F0A842C3
:100D400008D91CEB050503F1FF3802D2A84200F2D6
:100D5000CB8043462D1AA4B2B5FBF7F007FB105524
:100D600044EA05440EFB00FEA64508D91CEB04042A
:100D700000F1FF3502D2A64500F2BB802846A4EB65
:100D80000E0440EA03409EE7C1F120078B4022FA9F
:100D900007FC4CEA030C20FA07F405FA01F31C43A4
:100DA000FD404FEA1C4900FA01F3B5FBF9F8200CAD
:100DB0001FFA8CFE09FB185540EA054508FB0EF0AA
:100DC000A84202FA01F20BD91CEB050508F1FF3A23
:100DD00080F08880A84240F28580A8F1020865442E
:100DE0002D1AA4B2B5FBF9F009FB105544EA0545EC
:100DF00000FB0EFEAE4508D91CEB050500F1FF34E3
:100E00006CD2AE456AD90238654440EA0840A0FB7E
:100E10000294A5EB0E05A542C846A64656D353D06C
:100E20005EB1B3EB080265EB0E0505FA07F722FA8F
:100E300001F3CD401F43C6E900750021BDE8F087EE
:100E4000C2F1200320FA03F10CFA02FC25FA03F3A5
:100E500095400D434FEA1C471FFA8CFEB3FBF7F198
:100E600007FB11302B0C43EA004301FB0EF09842C4
:100E700004FA02F408D91CEB030301F1FF382FD266
:100E800098422DD9023963441B1AADB2B3FBF7F077
:100E900007FB103345EA034500FB0EF3AB4208D9CC
:100EA0001CEB050500F1FF3816D2AB4214D902380D
:100EB0006544ED1A40EA014138E73146304607E71C
:100EC0008646E5E61846FAE64B45A9D2B9EB020894
:100ED00064EB0C0E0138A3E74046EAE7204694E7AE
:100EE0004146D1E7D0467BE7023B654432E70846FE
:100EF00009E76444023842E7704700BF844641EA8C
:100F0000000313F003036DD1403A41D351F8043B81
:100F100040F8043B51F8043B40F8043B51F8043BD3
:100F200040F8043B51F8043B40F8043B51F8043BC3
:100F300040F8043B51F8043B40F8043B51F8043BB3
:100F400040F8043B51F8043B40F8043B51F8043BA3
:100F500040F8043B51F8043B40F8043B51F8043B93
:100F600040F8043B51F8043B40F8043B51F8043B83
:100F700040F8043B51F8043B40F8043B51F8043B73
:100F800040F8043B51F8043B40F8043B403ABDD2E2
:100F9000303211D351F8043B40F8043B51F8043B84
:100FA00040F8043B51F8043B40F8043B51F8043B43
:100FB00040F8043B103AEDD20C3205D351F8043B13
:100FC00040F8043B043AF9D2043208D0D2071CBFDF
:100FD00011F8013B00F8013B01D30B880380604608
:100FE000704700BF082A13D38B078DD010F003037E
:100FF0008AD0C3F10403D21ADB071CBF11F8013BEE
:1010000000F8013B80D331F8023B20F8023B7BE73C
:10101000043AD9D3013A11F8013B00F8013BF9D267
:101020000B7803704B7843708B7883706046704701
:1010300001F0FF01102A2BDB10F0070F08D010F889
:10104000013B013A8B422DD010F0070F42B3F6D18D
:10105000F0B441EA012141EA014122F007047FF0A6
:1010600000070023F0E80256083C85EA010586EAFD
:10107000010685FA47F5A3FA87F586FA47F6A5FA39
:1010800087F68EB9EED1F0BC01F0FF0102F0070245
:1010900032B110F8013B013A83EA010313B1F8D1F0
:1010A0000020704701387047002D06BF35460338D1
:1010B000073815F0010F07D1013015F4807F02BF0A
:1010C000013015F4C03F0130F0BC0138704700BF5B
:1010D0000000000000000000000000000000000010
:1010E0000000000000000000000000000000000000
:1010F00000000000000000000000000000000000F0
:1011000090F800F06DE9024520F007016FF0000C47
:1011100010F0070491F820F040F049804FF00004EF
:101120006FF00700D1E9002391F840F000F10800CA
:1011300082FA4CF2A4FA8CF283FA4CF3A2FA8CF302
:101140004BBBD1E9022382FA4CF200F10800A4FA69
:101150008CF283FA4CF3A2FA8CF3E3B9D1E90423BD
:1011600082FA4CF200F10800A4FA8CF283FA4CF3F4
:10117000A2FA8CF37BB9D1E9062301F1200182FAAE
:101180004CF200F10800A4FA8CF283FA4CF3A2FAB4
:101190008CF3002BC6D0002A04BF04301A4612BAC2
:1011A000B2FA82F2FDE8024500EBD2007047D1E9C5
:1011B000002304F00305C4F100004FEAC50514F054
:1011C000040F91F840F00CFA05F562EA05021CBF25
:1011D00063EA050362464FF00004A9E74FF0FF3CC5
:1011E00006E000BF4FF0010C02E000BF4FF0010C21
:1011F0004DF804CD4FEA410C7FEA6C5C4FEA430C9A
:1012000018BF7FEA6C5C1BD001B050EA410C0CBFE8
:1012100052EA430C91EA030F02BF90EA020F00204A
:10122000704710F1000F91EA030F58BF994208BFB1
:1012300090422CBFD8176FEAE37040F0010070476E
:101240004FEA410C7FEA6C5C02D150EA013C07D1C5
:101250004FEA430C7FEA6C5CD6D152EA033CD3D010
:101260005DF8040B704700BF8446104662468C460A
:101270001946634600E000BF01B5FFF7B7FF00283D
:1012800048BF10F1000F01BD4DF808EDFFF7F4FF66
:101290000CBF012000205DF808FB00BF4DF808EDF1
:1012A000FFF7EAFF34BF012000205DF808FB00BF14
:1012B0004DF808EDFFF7E0FF94BF012000205DF836
:1012C00008FB00BF4DF808EDFFF7CEFF94BF0120EB
:1012D00000205DF808FB00BF4DF808EDFFF7C4FFE4
:1012E00034BF012000205DF808FB00BF4FEA410C2D
:1012F0007FEA6C5C02D150EA013C0AD14FEA430C10
:101300007FEA6C5C02D152EA033C02D14FF000004C
:1013100070474FF0010070474FEA410212F500128A
:1013200015D211D56FF47873B3EB625212D94FEA2C
:10133000C12343F0004343EA505311F0004F23FA16
:1013400002F018BF404270474FF00000704750EA6B
:10135000013005D111F0004008BF6FF00040704728
:101360004FF00000704700BF10B504460E4B1878D0
:101370004FF47A73B3FBF0F30C4A1068B0FBF3F050
:1013800000F09CF868B90F2C01D901200AE0002276
:1013900021464FF0FF3000F04BF8054B1C60002059
:1013A00000E0012010BD00BF000000200800002068
:1013B0000400002008B50B4B1A6842F400721A6052
:1013C0001A6842F480621A601A6842F480721A60E5
:1013D000032000F01BF80020FFF7C6FF00F0C8FF55
:1013E000002008BD003C0240034A1168034B1B78F3
:1013F0000B441360704700BFD40900200000002098
:10140000014B1868704700BFD4090020074AD36811
:1014100023F4E0631B041B0C000200F4E0600343B0
:1014200043F0BF6343F40033D360704700ED00E046
:1014300000B5194BDB68C3F30223C3F1070CBCF101
:10144000040F28BF4FF0040C03F1040EBEF1060F89
:1014500018D9033B4FF0FF3E0EFA0CFC21EA0C01B9
:1014600099400EFA03F322EA0303194300280BDB29
:101470000901C9B200F1604000F5614080F8001335
:101480005DF804FB0023E5E700F00F000901C9B295
:10149000024B1954F4E700BF00ED00E014ED00E04A
:1014A000002807DB00F01F02400901239340024A95
:1014B00042F82030704700BF00E100E00138B0F191
:1014C000807F0BD24FF0E0235861054AF02182F86B
:1014D00023100020986107221A617047012070478D
:1014E00000ED00E0704708B5FFF7FCFF08BD70B5E0
:1014F0000446866DFFF784FF94F83530DBB2022B8B
:1015000006D080236365002384F83430012070BD49
:1015100005462268136823F0160313602268536996
:1015200023F080035361236CE3B12268136823F036
:10153000080313602268136823F001031360236813
:101540001B6813F0010F11D0FFF75AFF431B052B47
:10155000F5D920236365032084F83500002384F83F
:101560003430D4E7A36C002BDFD1E3E7E26D3F23F7
:101570009340B360012384F83530002084F83400B0
:10158000C5E790F83530DBB2022B03D080234365EA
:1015900001207047052380F835300268136823F076
:1015A000010313600020704700230F2B00F2E4803A
:1015B00070B582B060E085685E000324B44025EA1F
:1015C0000405CC68B4402C438460456825EA0205D4
:1015D0004C68C4F300129A402A4342605AE0DC0887
:1015E000083450F8246003F0070295000F22AA4047
:1015F00026EA020E0A69AA4042EA0E0240F82420B6
:101600005CE0072200E0002202FA0EF22A430234D4
:101610005A4D45F824205A4A94686FEA0C0224EA8D
:101620000C054E6816F4801F01D04CEA0405544C9A
:10163000A560E46802EA04054E6816F4001F01D0B4
:101640004CEA04054E4CE560646802EA04054E6805
:1016500016F4003F01D04CEA0405494C656024684B
:1016600022404D6815F4803F01D04CEA0402444CFE
:10167000226001330F2B7DD801229A400C6804EAC6
:10168000020C32EA0404F4D14C6804F00304013C77
:10169000012C90D94A6802F00302032A09D0C468D9
:1016A0005D000322AA4024EA02048A68AA40224379
:1016B000C2604A6802F00302022A90D004684FEA2E
:1016C000430E032202FA0EF224EA02044A6802F0F0
:1016D000030202FA0EF2224302604A6812F4403F0B
:1016E000C7D000220192274A546C44F480445464C9
:1016F000526C02F480420192019A9C08A51C1F4A78
:1017000052F8255003F003024FEA820E0F2202FA2C
:101710000EF225EA02051C4A90423FF474AF02F52E
:10172000806290421AD002F58062904218D002F591
:101730008062904216D002F58062904214D002F589
:101740008062904212D002F58062904210D002F581
:10175000806290423FF455AF082255E7012253E7DB
:10176000022251E703224FE704224DE705224BE70F
:10177000062249E702B070BD704700BF0038014043
:10178000003C01400038024000000240014B186854
:10179000704700BF0800002008B5FFF7F7FF044BB3
:1017A0009B68C3F38223034AD35CD84008BD00BFC3
:1017B000003802403C85000808B5FFF7E7FF044BFE
:1017C0009B68C3F34233034AD35CD84008BD00BFD3
:1017D000003802403C85000890F83D30DBB2012B18
:1017E00037D1022380F83D300268D36843F001030B
:1017F000D3600368194A934220D0B3F1804F1DD0C3
:10180000A2F57C42934219D002F58062934215D032
:1018100002F58062934211D002F5784293420DD0D6
:1018200002F57052934209D0A2F59432934205D04A
:101830001A6842F001021A60002070479A6802F0AC
:101840000702062A07D01A6842F001021A60002037
:101850007047012070470020704700BF0000014022
:10186000704770477047704710B5044603681A699F
:1018700012F0020F11D0DA6812F0020F0DD06FF0E3
:1018800002021A610123037703689B6913F0030FB7
:1018900070D0FFF7E6FF0023237723681A6912F060
:1018A000040F12D0DA6812F0040F0ED06FF00402A9
:1018B0001A610223237723689B6913F4407F5FD06A
:1018C0002046FFF7CEFF0023237723681A6912F022
:1018D000080F12D0DA6812F0080F0ED06FF008026D
:1018E0001A61042323772368DB6913F0030F4ED0BA
:1018F0002046FFF7B6FF0023237723681A6912F00A
:10190000100F12D0DA6812F0100F0ED06FF0100224
:101910001A61082323772368DB6913F4407F3DD0E5
:101920002046FFF79EFF0023237723681A6912F0F1
:10193000010F03D0DA6812F0010F36D123681A695B
:1019400012F0800F03D0DA6812F0800F34D12368D0
:101950001A6912F0400F03D0DA6812F0400F32D14A
:1019600023681A6912F0200F03D0DA6812F0200FF2
:1019700030D110BDFFF774FF2046FFF773FF8AE7F1
:101980002046FFF76DFF2046FFF76CFF9BE72046E0
:10199000FFF766FF2046FFF765FFACE72046FFF73D
:1019A0005FFF2046FFF75EFFBDE76FF001021A619F
:1019B000204600F091FCC1E76FF080021A612046DA
:1019C00000F0A1F8C3E76FF040021A612046FFF76C
:1019D0004AFFC5E76FF020021A61204600F092F836
:1019E000C7E700000368304A904212D0B0F1804F40
:1019F0000FD0A2F57C4290420BD002F5806290425B
:101A000007D002F58062904203D002F578429042FE
:101A100003D123F070034A681343234A90422AD02B
:101A2000B0F1804F27D0A2F57C42904223D002F53E
:101A3000806290421FD002F5806290421BD002F576
:101A40007842904217D002F57052904213D002F5BE
:101A5000806290420FD002F5806290420BD0A2F5D6
:101A60009832904207D002F58062904203D002F58E
:101A70008062904203D123F44073CA68134323F079
:101A800080034A69134303608B68C3620B688362F7
:101A9000054B984203D003F58063984201D10B694E
:101AA00003630123436170470000014040B310B558
:101AB000044690F83D30F3B1022384F83D302146CE
:101AC00051F8040BFFF78EFF012384F8463084F8A9
:101AD0003E3084F83F3084F8403084F8413084F858
:101AE000423084F8433084F8443084F8453084F838
:101AF0003D30002010BD80F83C3000F091FCDBE769
:101B00000120704770477047026802F10C0353E8E8
:101B1000003F23F490730C3242E800310029F3D1E6
:101B2000026802F1140353E8003F23F0010314326A
:101B300042E800310029F3D1036B012B05D02023AB
:101B400080F83E30002303637047026802F10C0303
:101B500053E8003F23F010030C3242E80031002923
:101B6000F3D1ECE790F83D30DBB2212B01D002201D
:101B700070478368B3F5805F17D0036A5A1C02620E
:101B80001A7803685A60C38C9BB2013B9BB2C38432
:101B90004BB90268D36823F08003D3600268D3682E
:101BA00043F04003D360002070470369002BE4D169
:101BB000036A1B880268C3F308035360036A023395
:101BC0000362E0E738B504460268136923F4405322
:101BD000C1680B431361836802691343426913436D
:101BE000C2691A430168CB6823F4164323F00C033F
:101BF0001343CB600268536923F4407381690B433C
:101C000053610368314A934206D002F580629342E1
:101C100002D0FFF7C1FD01E0FFF7CEFDE369B3F5A8
:101C2000004F29D00021031849411B1841F1000140
:101C3000C90041EA5371DB00181863684FEA830258
:101C40004FEA937341F10001FEF7D6FF204DA5FB4B
:101C500000325109642303FB11031B013233A5FB3E
:101C600003235B0903F0F00202EB011203F00F0300
:101C7000216813448B6038BD0023021843EB030135
:101C8000121841F10001C90041EA5271D200101846
:101C900041F10001626892185B41FEF7ADFF0C4D07
:101CA000A5FB00325109642303FB1103DB0032332F
:101CB000A5FB03235B095A0002F4F87202EB011240
:101CC00003F00703216813448B60D4E70010014040
:101CD0001F85EB512DE9F84305460F4616469946F8
:101CE000DDF820802C68246837EA04030CBF4FF02D
:101CF000010C4FF0000CB4452DD1B8F1FF3FF1D0ED
:101D0000B8F1000F05D0FFF77BFBA0EB09004045C1
:101D1000E8D92A6802F10C0353E8003F23F4D0739A
:101D20000C3242E800310029F3D12A6802F1140391
:101D300053E8003F23F00103143242E80031002948
:101D4000F3D1202385F83D3085F83E30002385F817
:101D50003C30032000E00020BDE8F88358B310B504
:101D6000044690F83D300BB3242384F83D302268BC
:101D7000D36823F40053D3602046FFF723FF226883
:101D8000136923F4904313612268536923F02A03F3
:101D900053612268D36843F40053D3600020206469
:101DA000202384F83D3084F83E3010BD80F83C306C
:101DB00000F0FCFAD8E7012070472DE9F04182B02D
:101DC0001E4690F83D30DBB2202B54D104460D4620
:101DD0009046002953D0002A53D090F83C30012B74
:101DE00051D0012380F83C3000230364212380F884
:101DF0003D30FFF705FB0746A4F82480A4F82680B1
:101E0000A368B3F5805F05D04FF00008002384F885
:101E10003C3012E0236913B14FF00008F6E7A84602
:101E20000025F3E738F8023B2268C3F30803536048
:101E3000E28C92B2013A92B2E284E38C9BB273B12B
:101E400000963B46002280212046FFF743FFE0B981
:101E5000002DE7D015F8012B23685A60E8E70096BB
:101E60003B46002240212046FFF734FF78B920236B
:101E700084F83D3000E0022002B0BDE8F08101208E
:101E8000FAE70120F8E70220F6E70320F4E7032051
:101E9000F2E7704708B50168CA6822F04002CA60DC
:101EA000202280F83D20FFF7F4FF002008BD704796
:101EB000704708B5806B0023C385C384FFF7F8FF24
:101EC00008BD704790F83E30DBB2222B67D18368A3
:101ED000B3F5805F4DD0826AB3F5805F04D0002BEC
:101EE00054D10369002B51D103685B681370836A76
:101EF00001338362C38D9BB2013B9BB2C385002B30
:101F00004FD100B583B00268D36823F02003D360BB
:101F10000268D36823F48073D3600268536923F0A6
:101F200001035361202380F83E30036B012B33D132
:101F300000230363026802F10C0353E8003F23F01F
:101F400010030C3242E800310029F3D103681A680B
:101F500012F0100F06D0002201921A6801925B68FD
:101F60000193019B818DFFF7ACFF002003B05DF86A
:101F700004FB0269002AAED1826A03685B68C3F37E
:101F800008031380836A02338362B3E703685B68E4
:101F900003F07F031370AAE7FFF789FFE5E702204C
:101FA000704700207047000030B583B004460268D7
:101FB0001368D068516913F00F0505D113F0200F95
:101FC00002D010F0200F19D12DB111F0010119D15B
:101FD00010F4907F16D1216B01297DD013F0800F72
:101FE00003D010F0800F40F0158113F0400F03D0A4
:101FF00010F0400F40F0128103B030BD2046FFF7D3
:1020000061FFF9E713F0010F06D010F4807F03D0D1
:10201000226C42F00102226413F0040F04D019B1C3
:10202000226C42F00202226413F0020F04D019B1B4
:10203000226C42F00402226413F0080F07D010F063
:10204000200F00D119B1226C42F008022264226CE8
:10205000002AD1D013F0200F02D010F0200F29D188
:1020600023685B6903F04003226C12F0080F00D173
:1020700063B32046FFF748FD23685B6913F0400F08
:1020800020D0226802F1140353E8003F23F04003FC
:10209000143242E800310029F3D1A36B73B1614AD5
:1020A0001A65A06BFFF76DFA0028A5D0A06B036D31
:1020B0009847A1E72046FFF705FFD1E72046FFF745
:1020C000F7FE99E72046FFF7F3FE95E72046FFF776
:1020D000EFFE002323648FE713F0100F3FF47EAF71
:1020E00010F0100F3FF47AAF0023019313680193AF
:1020F00053680193019B536913F0400F50D0A26BBA
:1021000013685B689BB2002B3FF476AFA18D9942B8
:102110007FF672AFE385D369B3F5807F37D022684D
:1021200002F10C0353E8003F23F480730C3242E8C1
:1021300000310029F3D1226802F1140353E8003F73
:1021400023F00103143242E800310029F3D1226860
:1021500002F1140353E8003F23F04003143242E835
:1021600000310029F3D1202384F83E30002323637B
:10217000226802F10C0353E8003F23F010030C32F5
:1021800042E800310029F3D1A06BFFF7B0F9A18D2F
:10219000E38D9BB2C91A89B22046FFF792FE2BE766
:1021A000A18DE38D9BB2C91A89B2E38D9BB2002B3E
:1021B0003FF422AF00293FF41FAF226802F10C0365
:1021C00053E8003F23F490730C3242E800300028BB
:1021D000F3D1226802F1140353E8003F23F0010316
:1021E000143242E800300028F3D1202384F83E3036
:1021F00000232363226802F10C0353E8003F23F01D
:1022000010030C3242E800300028F3D12046FFF7DB
:1022100058FEF1E62046FFF7A5FCEDE62046FFF765
:1022200039FEE9E6B31E0008FEE7000008B50948DC
:10223000094B03604FF4E133436000238360C360C4
:10224000036183610C234361FFF788FD00B908BD7A
:10225000FFF7EAFF200A002000440040F8B50546D9
:10226000194C48220021204600F06EFCFFF794FA3A
:10227000164B236018236360154BA3FB0030C00886
:10228000FEF700F902460B4600201249FEF79EFABF
:1022900006460F462846FEF717F932463B46FEF73C
:1022A00095FAFEF77BFB0138E0600023A360A36191
:1022B0002046FFF7FBFB28B9034B1B686FF00102B8
:1022C0001A61F8BDFFF7B0FFD809002000100040E8
:1022D0001F85EB510000F03F10B50A4B1868FEF760
:1022E00033FCFEF7F1F802460B46074C074920463F
:1022F00000F09AFC4FF0FF33322221460448FFF7EA
:102300005CFD10BD980A0020640A002028850008A2
:10231000200A002000B5ADB09C220A496846FEF7AD
:10232000EDFD00232793289329932A93CDF8AB3012
:102330004FF0FF33AF2269460348FFF73EFD2DB053
:102340005DF804FB78840008200A002008B5FFF738
:1023500031F8FFF76BFF4FF07E50FFF77FFFFFF77D
:10236000D9FF0248FFF738FAFEE700BFD80900207E
:1023700008B50320FFF74AF80B4A536A43F4E023F9
:102380005362002211466FF00B00FFF751F8002254
:1023900011466FF00A00FFF74BF8002211466FF06C
:1023A0000900FFF745F808BD00ED00E030B589B041
:1023B00000240194184B1A6B42F001021A631A6B45
:1023C00002F001020192019A02941A6C42F4003266
:1023D0001A641B6C03F400330293029B04230393DF
:1023E0000223049305930694072307930B4D03A937
:1023F0002846FFF7D9F80823039303A92846FFF7D7
:10240000D3F82620FFF74CF822460F212620FFF7AD
:102410000FF809B030BD00BF003802400000024094
:1024200010B582B000240194094B1A6C42F01002DE
:102430001A641B6C03F010030193019B3620FFF715
:102440002FF822460F213620FEF7F2FF02B010BD12
:102450000038024008B5FEF7C7FFFFF744F808BD93
:1024600008B50248FFF7A0FD08BD00BF200A002004
:1024700008B50248FFF7F8F908BD00BFD8090020E9
:102480000120704708B500F085F8162303604FF06F
:10249000FF3008BD08B54FF0FF31FFF7F3FFFEE74F
:1024A00070B50C461646002506E0AFF300802146C5
:1024B00001F8010B01350C46B542F6DB304670BD24
:1024C00070B50C461646002504E014F8010BAFF376
:1024D00000800135B542F8DB304670BD4FF0FF306B
:1024E00070474FF400534B60002070470120704745
:1024F0000020704710B503460C4A0D490D4800688E
:1025000040B10C4800680344521A934206D8094A65
:10251000136010BD0748084C0460F2E700F03AF879
:102520000C2303604FF0FF30F3E700BF00000220F0
:10253000000400009C0A0020E80A00207047000008
:10254000DFF834D00D480E490E4A002302E0D4587B
:10255000C4500433C4188C42F9D30B4A0B4C0023EB
:1025600001E013600432A242FBD3FFF7E7FF00F063
:1025700017F8FFF7EBFE7047000002200000002074
:10258000B809002054890008B8090020E80A002092
:10259000FEE70000014B1868704700BF0C000020E8
:1025A00070B50D4E0D4D761BB61006D0002455F8B3
:1025B000043B01349847A642F9D1094E094D761BD8
:1025C00005F04CFFB61006D0002455F8043B01344A
:1025D0009847A642F9D170BD48890008488900088B
:1025E00050890008488900082DE9F04F01F10B06D9
:1025F000162E83B0044624D8102900F2BA8000F0C9
:10260000F5FA102618220220B54F3A44A2F108012B
:1026100053688B4200F0BA805A68D96822F00302EE
:102620001A449D68E9608D60516841F001012046BF
:10263000516003F1080500F0DFFA284603B0BDE859
:10264000F08F36F0070600F19480B14200F29180DD
:1026500000F0CCFAB6F5FC7FC0F09A81730A00F066
:102660008F80042B00F26F81B30903F1390003F16D
:10267000380CC3009A4F3B44A3F108055B689D42A8
:1026800006D10CE0002980F22781DB689D4206D04C
:102690005A6822F00302911B0F29F3DD60463D6961
:1026A000DFF840C265457CD06A6822F00302931BC4
:1026B0000F2B00F37B81002BC7E904CC80F26C81E7
:1026C000B2F5007F80F01A81D308796801334FEAB0
:1026D000521E012202FA0EF20A4357F833E0C5F8FF
:1026E00008E007EBC3010839E9607A6047F8335026
:1026F000CEF80C50831001219940914257D81142D5
:1027000006D120F003004900114200F10400FAD084
:1027100007EBC0094D468646D5F80C80454508D1E3
:102720001DE1002B80F22481D8F80C80454500F093
:102730001681D8F8042022F00302931B0F2BF0DD42
:102740002046D8E9025408EB060146F00106C8F815
:102750000460EC60A56043F00104C7E90411C1E91D
:1027600002CC4C6048F8023000F046FA08F1080547
:1027700002E00C2323600025284603B0BDE8F08F5B
:102780004FF4007340204FF03F0C73E7D3689A4238
:1027900008BF02307FF440AF3D69DFF848C16545AE
:1027A00082D17A688310012199409142A7D9BD68EE
:1027B0006B6823F003094E4503D8A9EB06030F2BE2
:1027C0007ADCDFF824B1494BDBF800201B680132CA
:1027D000334405EB090A00F0338103F580530F33CE
:1027E00023F47F6828F00F084146204600F00AFADB
:1027F000411C024600F0F380824500F2EE803C4B23
:10280000196841441960084600F04E81DBF8001059
:10281000019301311BBFA2EB0A0A5044CBF8002000
:10282000186012F0070B00F01781CBF108010A4481
:10283000CBF5805190440831A1EB0801C1F30B0A9C
:1028400051462046009200F0DDF9421CDDE90023EC
:1028500000F04F81801A00EB0A081968BA6048F04E
:1028600001005144BD425060196000F02981B9F166
:102870000F0F40F227816868A9F10C0C2CF0070CAF
:1028800000F0010040EA0C0068604FF0050E05EB17
:102890000C00BCF10F0FC0E901EE00F2328150686C
:1028A0001546144B1A688A4238BF1960124B1A68D1
:1028B0008A4238BF196094E0AA1943F0010346F038
:1028C00001066E602046BA60536000F095F9083545
:1028D000284603B0BDE8F08FD9681A44A1E600BFCE
:1028E000380400204004002040080020D00A0020C6
:1028F000A00A0020C80A0020CC0A0020B2F5206FF0
:102900004FEA522363D3142B00F2B78003F15C012A
:10291000C9005B3307EB010E7958AEF1080E8E4506
:1029200000F091804B6823F00303934202D9896839
:102930008E45F7D1D1F80CE07A68C5E9021ECEF8D1
:102940000850CD60D6E6142B59D9542B00F29D8047
:10295000330B03F16F0003F16E0CC3008AE60EF136
:10296000010E1EF0030F05F108057FF4D5AE51E00E
:10297000424445465368D8F80C1043F001035360B5
:1029800055F8083F2046D9608B6000F035F9F3E632
:10299000F00806F1080237E62A442046536843F05F
:1029A00001035360083500F027F9E5E6A919204630
:1029B00046F0010643F001046E60C7E90411C1E965
:1029C00002CC4C60AB5000F017F90835D4E69309FF
:1029D00003F13901C90038339CE7BD425FD0BD68BF
:1029E000686820F003084645A8EB060302D80F2BC1
:1029F0003FF762AF204600F0FFF80025BCE603F188
:102A00005C0003F15B0CC30034E659F808394B4510
:102A100040F0968010F0030F00F1FF30F5D17B6895
:102A200023EA01037B60490099423FF6C0AE19B921
:102A3000BDE649000EF1040E1942FAD0704667E671
:102A400003F11008D0E69A104FF001087B6808FAED
:102A500002F21A437A6070E702EB08014942C1F3BF
:102A60000B0A51462046009200F0CCF8431CDDE9E9
:102A700000237FF4EFAEDA46EFE6542B25D8130B94
:102A800003F16F01C9006E3344E7B3F5AA7F25D87F
:102A9000F30B03F1780003F1770CC300EAE5294B4F
:102AA000186840441860B1E6CAF30B0CBCF1000F83
:102AB0007FF4ACAEBD68C84448F001006860F0E641
:102AC0001546EEE60123536094E7B3F5AA7F23D8B9
:102AD000D30B03F17801C90077331BE740F254525E
:102AE000934223D8B30C03F17D0003F17C0CC300A7
:102AF000C0E5ABF1080BD844A8EB02084FF0000A80
:102B0000ABE605F108012046009302F035FEBD68F2
:102B1000009B68681968C4E640F254518B420BD898
:102B2000930C03F17D01C9007C33F3E64FF47E730F
:102B30007F204FF07E0C9DE54FF47E717E23E9E609
:102B40007B6870E7A00A0020830730B548D0541E88
:102B5000002A3FD0CAB2034601E0013C3AD303F851
:102B6000012B9D07F9D1032C2DD9CDB245EA0525BE
:102B70000F2C45EA054536D9A4F1100222F00F0CBE
:102B800003F1200EE6444FEA121C03F1100242E961
:102B9000045542E9025510327245F8D10CF1010298
:102BA00014F00C0F03EB021204F00F0C13D0ACF175
:102BB000040323F003030433134442F8045B9342F9
:102BC000FBD10CF003042CB1CAB21C4403F8012B56
:102BD0009C42FBD130BD64461346002CF4D1F9E78A
:102BE00003461446BFE71A46A446E0E7014802F050
:102BF000D1BE00BFD80A0020014802F0CDBE00BF00
:102C0000D80A002038B5074D0022044608462A603D
:102C1000FFF770FC431C00D038BD2B68002BFBD0A5
:102C2000236038BDE40A00200EB410B59DB06FF0EB
:102C300000411FABCDE906010491094953F8042B6B
:102C40000290084C0868019302A9059400F00CF862
:102C5000029B00221A701DB0BDE8104003B07047FF
:102C60000C0000200802FFFF2DE9F04FD5B00C4604
:102C70000C9191460E930A9002F084FE036817931C
:102C80001846FEF73DFAA3891690190603D5236965
:102C9000002B00F08B8700242BAB4D46CDE9294457
:102CA000CDE91944CDE91B44129428939846189411
:102CB000002308940024CDE914342B78002B00F075
:102CC000DD81AA4604E01AF8013F002B00F01681CE
:102CD000252BF8D1BAEB050640F014819AF80030A4
:102CE000002B00F0CB8100234FF0FF329AF80160F7
:102CF0008DF8833009930AF1010A07921F462B24AD
:102D00004FF020090AF1010AA6F120035A2B00F224
:102D10002D81DFE813F0BA022B012B01B5022B0144
:102D20002B012B016A002B012B014F02E3022B0127
:102D30005A02C9022B01C4025B005B005B005B000E
:102D40005B005B005B005B005B002B012B012B0138
:102D50002B012B012B012B01BF012B011A02860035
:102D6000BF01BF01BF012B012B012B012B01B002C1
:102D70002B012B01C3002B012B012B0124022B0162
:102D80005F022B012B013C072B012B012B012B0197
:102D90002B012B012B012B01BF012B011A028800F3
:102DA000BF01BF01BF01A302880081002B01960271
:102DB0002B018202C500700281002B0124027E00DB
:102DC00039072B012B0119072B017E00A6F13003D7
:102DD00000221AF8016B02EB820203EB4202A6F119
:102DE0003003092BF5D909928EE7DDF828B0584653
:102DF00002F0C8FD43681B931846FEF781F91C904A
:102E00000646584602F0BEFD83681993002E40F036
:102E10007A869AF8006075E79AF8006047F0200714
:102E200070E747F01007BA060E9B40F18081073328
:102E300023F007031A465B6852F8084B0E92994636
:102E4000002BC0F25F85079B013301F01F8054EA1D
:102E5000090327F0800B00F0E3840A2C79F10003CA
:102E600080F08187303401238DF84F415F460B930A
:102E70000DF24F1507990B989DF8832081424FF072
:102E80000003B8BF01460D9306910F93139310935F
:102E9000002A7CD0069B0133069378E047F01007A8
:102EA00017F0200900F034810E9B073323F007034D
:102EB000D3F8049053F8084B0E9327F4806B00234B
:102EC00000228DF88320079A511C00F00D8254EAED
:102ED00009012BF0800740F00682002A41F01080A3
:102EE000002B40F0A2841BF001030B9300F0378508
:102EF00030238DF84F310DF24F15BBE7BAEB0506C5
:102F000000F0BC802A9B33442A93299B0133072B72
:102F1000C8E90056299305DC08F10808089B3344EA
:102F20000893DBE60C990A9828AA03F04BF980B9BC
:102F30000DF1AC08F2E70C990A9828AA03F042F9BF
:102F4000002800F08C800D9B1BB10D990A9802F0AF
:102F500013FC0C9B9B8913F0400F089B18BF4FF08C
:102F6000FF330893089855B0BDE8F08F002E00F0AD
:102F7000858000228DF8EC608DF883200123069374
:102F80000D920B9307920F92139210923BAD17F094
:102F9000020302D006990231069117F0840B07D183
:102FA00009990698A1EB0009B9F1000F00F3158308
:102FB0002A9C8AB1299A0DF1830101320134C8F8A3
:102FC0000010072A4FF001012A942992C8F8041032
:102FD00000F3468308F1080883B1299B21AA013335
:102FE0000234C8F80020072B4FF002022A942993DC
:102FF000C8F8042000F3488308F10808BBF1800FEB
:1030000000F00E82079B0B9AA3EB020BBBF1000FA3
:1030100000F34F82FB0500F1A5810B9BC8F804303B
:103020001C44299BC8F800500133072B2A9429938C
:1030300000F3C78208F108087B0705D5099B069AAB
:103040009D1A002D00F32C83DDE9083206998A428F
:10305000ACBF9B185B180893002C7FF46CAF002367
:1030600029930D9B1BB10D990A9802F085FB0DF178
:10307000AC0855462B78002B7FF423AE2A9B002BFF
:103080003FF467AF0C9C0A9828AA214603F09AF8EF
:10309000A38960E70E9B073323F00702F2E80234AE
:1030A000CDE91434DDE9143424F000440E9299463D
:1030B00018462146A74B4FF0FF32FEF717F90028BC
:1030C00040F06284A34B484621464FF0FF32FEF7A2
:1030D000EFF8002840F05884DDE9140100220023B5
:1030E000FEF7DCF8002840F0AD879DF883209A4D6C
:1030F0009A4B27F080070321472EC8BF1D460023A7
:103100000D9306910B9107930F9313931093BFE6C2
:1031100017F0100340F02E8417F0400200F054879F
:103120000E9A52F8044B0E929946A4B2C5E653F893
:10313000044B0E93FB0600F118847D0640F11284C7
:1031400044F3C0394B4624B27AE60E9B002253F872
:10315000041B8DF883208DF8EC100E930EE70E9C67
:10316000079B54F8045B4FF000098DF88390002D05
:1031700000F0D5865A1C00F052851A46494628466A
:10318000FDF756FF0D90002801F057800D9BCDF8FC
:103190001C905B1B0B930E9423EAE3739DF8832032
:1031A0000693CDF83490CDF83C90CDF84C90CDF806
:1031B00040906DE60E9B53F8042B0992002A80F292
:1031C000C983099A0E93524209929AF8006047F017
:1031D000040797E547F0100B1BF0200900F08183EE
:1031E0000E9B073323F00703D3F8049053F8084BE2
:1031F0000E93012364E60E9B53F8044B0E93302389
:1032000078268DF88430564B189347F0020B8DF8D2
:1032100085604FF00009022352E6BD0600F182846A
:10322000FC0600F17386780600F13C87B90540F191
:103230006D860E9B089953F8042B0E93117055461A
:1032400018E79AF800606C2E03BF9AF8016047F007
:1032500020070AF1010A47F0100753E59AF80060C9
:10326000682E03BF9AF8016047F400770AF1010A5B
:1032700047F0400746E59AF8006047F0080741E547
:103280009AF8006047F001073CE59DF88330002B79
:103290007FF4BFAD9AF800608DF8839032E59AF81C
:1032A000006047F080072DE5524612F8016B2A2E88
:1032B00001F0CD81A6F13003092B924698BF002280
:1032C00001F288801AF8016B02EB820203EB4202E2
:1032D000A6F13003092BF5D9079215E59AF800609D
:1032E0008DF883400EE5BB46012B3FF4B6AD022BB3
:1032F00054AD12D1189A04F00F032409D35C05F8D9
:10330000013D44EA09744FEA191954EA0903F2D15C
:1033100054AB5B1B5F460B93ACE504F00703E4087A
:1033200044EA49744FEAD909303354EA09012A467C
:1033300005F8013DF1D11BF0010FE9D0302BE7D0AA
:103340003023023A05F8013C54AB9B1A5F460B93BD
:1033500015468FE5FFFFEF7F488500084C85000884
:1033600058850008652E40F3E680DDE9140100224F
:103370000023FDF789FF002800F0CD81299BBF4A7B
:10338000C8F80020013301340122072B2A94299325
:10339000C8F8042000F37D8508F10808229B129AE2
:1033A000934280F2D382169B179A1C44C8E90023EB
:1033B000299B2A940133072B299300F3EB8308F10F
:1033C0000808129B5D1E002D7FF736AE102D299B3D
:1033D000DFF8AC9240F36E8549462246B946DDF8E7
:1033E00028B00C9C10260F4605E008F10808103D97
:1033F000102D40F35B8501331032072BC8E90076AE
:10340000CDE92932F1DD28AA2146584602F0DAFE3C
:1034100000287FF498ADDDE929320DF1AC08E6E72C
:10342000099B069AA3EB020BBBF1000F7FF7EAADF5
:10343000BBF1100F299ADFF848922CDD1D9621462A
:103440004E460C9CDDF82890102306E0ABF1100BE3
:10345000BBF1100F08F108081ADD01321031072AFC
:10346000C8E90063CDE92921F0DD28AA21464846B4
:103470000DF1AC0802F0A6FE00287FF464ADABF1BC
:10348000100BBBF1100FDDE929214FF01003E4DC34
:10349000B1461D9E0C4601325C44072ACDE9292421
:1034A000C8F80090C8F804B000F31D8508F10808BA
:1034B000A8E5BBF1100F299ADFF8C4912DDD414634
:1034C0002046A8464C460C9DDDF82890102306E0C7
:1034D000ABF1100BBBF1100F01F1080119DD013246
:1034E0001030072AC1E90043CDE92920F0DD28AAE0
:1034F0002946484602F066FE00287FF424ADABF171
:10350000100BBBF1100FDDE929202BA94FF01003A0
:10351000E5DC4546A1468846044601325C44072A5C
:10352000CDE92924C8F80090C8F804B000F3CC8194
:1035300008F108086EE5129B012B40F37C81299E5F
:10354000C8F80050013601340123072E2A94299629
:10355000C8F8043000F3E08108F10808169B179AB8
:1035600001361C44072EC8E90023CDE9296400F385
:10357000E08108F10808DDE9140100220023FDF7CD
:1035800083FE002840F07481129B0136013B013517
:103590001C44072EC8F800502996C8F804302A9415
:1035A00000F3598108F108081A9BC8F80430013665
:1035B0001C44072E24ABCDE92964C8F800307FF7FE
:1035C00039AD0C990A9828AA02F0FCFD00287FF476
:1035D000BAAC2A9C0DF1AC082EE5B9F1100FDDE96B
:1035E00029212BDDCDE91D3B1F96DDF828B04E4685
:1035F0001024A9460C9D04E0103E102E08F1080886
:1036000017DD01321F4B1031072AC8E90034CDE91C
:103610002921F1DD28AA294658460DF1AC0802F00F
:10362000D1FD00287FF48FAC103E102EDDE929215A
:10363000E7DCDDE91D3B4D46B1461F9EC8F804900E
:10364000013209EB0104072A0E49C8F80010CDE940
:10365000292400F3FF839DF8832008F10808A8E4DB
:103660000C990A981D9328AA02F0ACFD00287FF45B
:103670006AAC2A9C1D9B0DF1AC08ADE4888500085E
:103680009C8500088C8500080C990A9828AA02F0ED
:1036900099FD00287FF457AC2A9C0DF1AC08ADE4ED
:1036A000102D299B21DD0A9FDDF83090102604E0C3
:1036B000103D102D08F1080817DD0133B04A103411
:1036C000072BC8E90026CDE92934F1DD28AA4946AF
:1036D00038460DF1AC0802F075FD00287FF433ACDC
:1036E000103D102DDDE92934E7DC0133A44AC8F888
:1036F00004502C44072BCDE92934C8F800207FF76B
:10370000A3AC0C990A9828AA02F05CFD00287FF46B
:103710001AAC2A9C98E42299002940F36683DDF8CC
:103720004090129B9945A8BF9946B9F1000F0BDD57
:10373000299B01334C44072BC8E900592A9429934B
:1037400000F32F8508F10808109EB9F1000FA8BFFB
:10375000A6EB0906002E00F33882DDF840B07805AC
:10376000AB4400F16682229B129A934202DBF90776
:1037700040F18E84169A17991444C8E90012299AC8
:103780002A940132072A299200F3188508F10808C3
:10379000129AAE18A6EB0B06D51AAE42A8BF2E465B
:1037A000002E0DDD299BC8F800B001333444072BEF
:1037B000C8F804602A94299300F31A8608F10808CF
:1037C000002EA8BFAD1B002D7FF736AC102D299B16
:1037D000DFF8B09140F36E8349462246B946DDF8E2
:1037E00028B00C9C10260F4605E008F10808103D93
:1037F000102D40F35B8301331032072BC8E90076AC
:10380000CDE92932F1DD28AA2146584602F0DAFC3A
:1038100000287FF498ABDDE929320DF1AC08E6E72A
:10382000079B002B7FF41EAB5F46002307930B938F
:1038300054ADFFF71FBBFA073FF581AE299EC8F8CC
:103840000050013601340123072E2A942996C8F826
:1038500004307FF7A7AE0C990A9828AA02F0B2FCB0
:1038600000287FF470ABDDE929640DF1AC089BE61C
:10387000129B5D1E002D7FF797AE102DDFF804918F
:1038800040F39683224607970A9C0C9F4FF0100B3B
:1038900005E008F10808103D102D40F3878301363C
:1038A0001032072EC8E9009BCDE92962F1DD28AA74
:1038B0003946204602F086FC00287FF444ABDDE95F
:1038C00029620DF1AC08E6E70C990A9828AA02F0E3
:1038D00079FC00287FF437AB2A9C0DF1AC08FFF788
:1038E00099BB1BF0100340F028811BF0400200F050
:1038F00079830E9A52F8044B0E929946A4B2012392
:10390000FFF7DEBA2D2364428DF8833069EB490955
:10391000BB460123FFF7D7BA0C990A9828AA02F0F0
:1039200051FC00287FF40FABDDE929640DF1AC08F0
:1039300014E60C990A9828AA02F044FC00287FF4A7
:1039400002ABDDE929640DF1AC0814E6FD077FF553
:1039500073AB28E59AF800600E93FFF7D3B954AD26
:10396000FFF788BAB80500F1A6834FEAE4794B4621
:10397000FFF766BA0E9B53F8044B0E93FFF79DBA00
:103980008C8500089C850008DDE9140102460B4681
:10399000FDF7ACFC002840F00F86612E00F0458555
:1039A000412E00F06D84079B013326F0200306931F
:1039B00000F0A983472B00F08885DDE9141247F455
:1039C00080730F931346002BC0F292850B93002354
:1039D0001D938B460D93069B462B00F0FD83452BD4
:1039E00000F044850799019126A9049123A9039128
:1039F00022A9029102210B9B0A9800915A4600F0DD
:103A0000F3FE069B472B054640F0318617F0010F69
:103A1000B9460F9F40F0FC84269B5B1B1293069BCC
:103A2000472B00F08283069B462B00F01284229BDA
:103A30001093109B069A013B412A229300F0AD851A
:103A4000F2B20021002BB8BF109B8DF89020BABFB6
:103A5000C3F101032D222B22092B8DF8912040F375
:103A60008D850DF19F04B64F2246104687FB03213A
:103A7000DA17C2EBA10202EB8201A3EB4101303164
:103A800000F8011C19466329134600F1FF32ECDCF3
:103A90003033D9B2831E9C4202F8011C40F2F185FA
:103AA00013460DF1920201E013F8011B02F8011B0D
:103AB0009C42F9D10DF1A1030DF192021B1A13449E
:103AC00024AA9B1A1A93129B1A9A012B1A440B923E
:103AD00040F39E850B9B169A13440B930B9A00237D
:103AE00029F4806722EAE27247F480770F93069206
:103AF000139310931D9B002B40F03F839DF8832070
:103B00000793FFF7C5B9199B002B3FF482A9199BB6
:103B10001B78002B3FF47DA99AF8006047F480677A
:103B2000FFF7F0B80E9B089853F8041B0E93C217CA
:103B3000C1E900025546FFF79DBA0E9B53F8044BAE
:103B40000E930123FFF7BCB97E4B189317F02009A1
:103B500000F0EC800E9B073323F00703D3F80490AA
:103B600053F8084B0E93F80709D554EA090306D019
:103B700030238DF8856047F002078DF8843027F4F4
:103B8000806B0223FFF79CB9BB46FFF725BB6E4B4A
:103B90001893DBE70C990A9828AA02F013FB002877
:103BA0007FF4D1A92A9C0DF1AC080AE40A984021BF
:103BB000FEF71AFD0C9B18601861002800F065855F
:103BC0000C9A40235361FFF766B8102E299BDFF84B
:103BD0007C9140F32982484642462146A846B94690
:103BE0000A9C0C9D4FF0100B074604E00832103E73
:103BF000102E40F3138201331031072BC2E9007BF2
:103C0000CDE92931F2DD28AA2946204602F0DAFA68
:103C100000287FF498A9DDE929312BAAE7E7284697
:103C2000CDF81C900E94FDF76BFA03460B90FFF74E
:103C3000B3BA129BCDF82CA04246DDF84C80109709
:103C4000EB1807935E46199FDDF87090DDF828A009
:103C5000DDF830B00F9B13952146B8F1000F2FD03F
:103C6000002B30D1013F08F1FF381B9BC2E900391E
:103C7000299B01334944072B2A91299368DC083298
:103C8000079B38789B1B8342A8BF0346002B1C462A
:103C90000BDD2998013019440728C2E900632A91F5
:103CA000299000F3148138780832002CACBF051B32
:103CB0000546002D0BDC06440F9BB8F1000FCFD159
:103CC000002B00F023820F9B013B0F93CDE7102DBB
:103CD00029981DDD102404E0103D102D02F108028A
:103CE00016DD0130194B10310728C2E90034CDE947
:103CF0002901F1DD28AA5946504602F063FA00284E
:103D00007FF421A9103D102DDDE929012BAAE8DC63
:103D100001300E4B556029440728CDE92901136075
:103D200000F33282387808320644C5E717F01003F2
:103D300000F0A1800E9B53F8044B0E9313E700BFD5
:103D400067666666588500086C8500089C850008D3
:103D500028AA5946504602F035FA00287FF4F3A805
:103D60002A992BAA8CE70BF4806300220696CDF8E3
:103D70002CA0CDF8348054AFDDF864809A46164606
:103D80000CE00023204649460A22FCF735FF0A2CA6
:103D900079F100031BD3044689462F4620460A22A8
:103DA00000234946FCF728FF30327D1E013607F814
:103DB000012CBAF1000FE4D098F800309E42E0D117
:103DC000FF2EDED00A2C79F1000380F0408154AB45
:103DD0005B1BDDF82CA0CDF864801296DDF83480F2
:103DE000069E0B935F46FFF745B8299BBC4AC8F86F
:103DF0000020013301340122072B2A942993C8F8AB
:103E0000042000F3388108F10808002940F0978069
:103E1000129A07F0010313433FF40EA9169B17995A
:103E20001A19C8E90013299B2A920133072B2993F9
:103E300000F3478108F108081299C8F800500133CF
:103E40008C18072BCDE92934C8F804107FF7F2A8A5
:103E5000FFF7B7BB0C990A981D9328AA02F0B2F994
:103E600000287FF470A89DF883202A9C1D9B0DF1EB
:103E7000AC08FFF79EB817F0400200F0C2800E9A1F
:103E800052F8044B0E929946A4B26CE6BB46FEF77C
:103E9000E4BF0C990A9828AA02F094F900287FF44C
:103EA00052A82A9C0DF1AC08FFF778BA14463A469E
:103EB0004F46914601332C44072BC8F80090C8F8B0
:103EC0000450CDE929347FF7B5A8FFF77ABB28AABB
:103ED0005946504602F076F900287FF434A8387825
:103EE0002A992BAAE1E60C990A9828AA02F06AF905
:103EF00000287FF428A82A9C0DF1AC08FFF782B8AF
:103F0000012BBB467FF4F3A9FEF7ACBF0E9B0899CB
:103F100053F8042B554611600E93FFF7ABB8062BF0
:103F2000294628BF062307950D952A4606936D4D11
:103F30000E940B930F9113911091FEF7A9BF169B4E
:103F400017981A19C8E90003299B2A920133072BF5
:103F5000299300F3B68008F108080029BFF66CAF7A
:103F60004E421031DFF8809180F297824146DDF8B1
:103F700028B0A84610240C9D04E00831103E102EF5
:103F800040F3898201331032072BC1E90094CDE957
:103F90002932F2DD28AA2946584602F013F90028F2
:103FA0007EF4D1AFDDE929322BA9E7E7079F14465C
:103FB00001362C44072ECDE92964C8F80090C8F8D2
:103FC00004507FF7EFAA46E40E9B17F4007914BF64
:103FD00053F8044B53F8044B0E931CBF9146E4B2C4
:103FE000FEF76BBF0E9B1BF4007914BF53F8044B14
:103FF00053F8044B0E931CBF9146E4B20123FEF725
:104000005FBF0E9B17F4007914BF53F8044B53F8AD
:10401000044B0E931CBF9146E4B2A4E5454690467E
:104020003A460C464F46914601333444072BCDE9BE
:104030002934C8F80090C8F8046057DC08F1080873
:10404000FFF78BBB2D228DF88320FFF750B81C9B08
:104050001B99ED1A1A46284602F082F898F80130AA
:104060000BB108F10108204649460A220023002628
:10407000FCF7C2FD8FE60C990A9828AA02F0A2F874
:1040800000287EF460AF22992A9C0DF1AC08BCE6B2
:10409000129AAE18A6EB0B06D51AAE42A8BF2E4652
:1040A000FFF78EBB0E9B089953F8042B0E931180DB
:1040B0005546FEF7DFBF44F3C0194B4664B2FEF726
:1040C000BFBE0C990A9828AA02F07CF800287EF45A
:1040D0003AAFDDE9293222990DF1AC083DE700BF86
:1040E00088850008808500089C8500080C990A983E
:1040F00028AA02F067F800287EF425AF2A9C0DF16B
:10410000AC08FFF72ABB0623079356E4DDE9123516
:10411000EB189E421997B346DDF82CA0109F9046ED
:104120000C4628BF9B46FFF71EBB229B1093DA1C50
:1041300002DB079A934204DD023E26F02003069339
:1041400077E4109B129A9342C0F2488119F0010F54
:1041500000F01182169A13440B9319F4806F03D068
:10416000109B002B00F3C7810B9B23EAE37306939C
:10417000672600230F931393BCE42D2200238DF8B0
:1041800083200793FEF786BE28AA5946504602F0C0
:1041900019F800287EF4D7AE38782A992BAA06445D
:1041A0008AE50C990A9828AA02F00CF800287EF4F7
:1041B000CAAE2A9C0DF1AC08FFF7C6BA0C990A9852
:1041C00028AA01F0FFFF00287EF4BDAE229B2A9CA6
:1041D0000DF1AC08FFF7DCBA0799019126A904910B
:1041E00023A9039122A9029103210B9B0A98009114
:1041F0005A4600F0F9FA0378302B054600F0F181B9
:10420000229B079AB94613440F9FEC180B99584606
:1042100000220023FDF738F810B12346FFF7FDBB5D
:10422000269BA342BFF4F9AB30215A1C2692197089
:10423000269B9C42F9D8FFF7F0BB079B9DF8832093
:104240000E9406930B9307900F9013901090FEF727
:104250001FBE229A1092002A40F3E081079909F0CC
:1042600001030B4340F0B781109B0B93662619F4B2
:10427000806F40F041810B9B23EAE373069378E75C
:1042800030238DF8843058238DF88530079B632BBD
:1042900047F0020400F3BF8000230D933BADDDE93E
:1042A000141247F481730F931346002B2746C0F274
:1042B00085800B9326F02003069300238B461D93E5
:1042C000612E00F04081412E7FF485AB22AA0B992C
:1042D000584601F00DFF00224FF07F53FCF74CF9D8
:1042E00002460B46CDE9102300220023FCF7CCFF49
:1042F00008B101232293AC4B0B93079BCDE912A687
:10430000CDE91E78DDF82CA0DDE9106703F1FF3957
:10431000AB46109506E00022002309F1FF39FCF7B7
:10432000B3FFE8B9A14B002230463946FCF724F927
:104330000F460646FCF7F0FF0446FCF7B3F80B46C1
:10434000024639463046FBF75FFF1AF80430B9F1F0
:10435000FF3FD8464D460BF8013B06460F46DAD1E3
:1043600030463946924BDDF848A0139ECDF8488080
:104370000022A946DDF87C80109D1E9FCDE910012A
:10438000FCF7AAFF002855D1DDE91001884B002277
:10439000FCF77AFF08B1E1074CD44B46002B06DB53
:1043A00001335B4430220BF8012B5B45FBD1ABEBB7
:1043B0000503B94612930F9FFFF731BB26F0200388
:1043C0000693DDE914349B4604F100430B932D233F
:1043D0001D9375E700230793FEF796BC129B169A70
:1043E0009A18109B0B92002B40F3098167263EE739
:1043F0000C990A9828AA01F0E5FE00287EF4A3ADE6
:10440000229D129B2A9C5D1B0DF1AC08FFF7D8B9C9
:10441000079BEC18FAE60A98591CFEF7E5F80546E2
:10442000002800F026810D9039E730238DF8843084
:10443000782329E7129B26930B9B1BF8012CD97B31
:104440008A425B4609D1302003F8010C269B5A1E94
:10445000269213F8012C9142F6D0392A0BBF0B9A01
:104460000132927AD2B203F8012CA0E707990B9B94
:104470000A984C1C26A9049123A9039122A9029110
:1044800002215A460194009100F0AEF90546B94662
:104490002C440F9FBAE64546884601333244072B29
:1044A000CDE92932C8F80090C8F804607FF7C2ACA3
:1044B0000C990A9828AA01F085FE00287EF443ADE5
:1044C000DDE929320DF1AC08B6E4079B002B08BFEB
:1044D0000123079347F480730F93159B002BC0F2C1
:1044E000B180DDF850B00D900B931D90FFF77ABAB4
:1044F00000230D9365E7672619990B78FF2B00F0D1
:10450000B2800024109A204603E001300131FF2BD5
:1045100008D0934206DAD21A4B78002BF5D10B78EB
:104520000134F4E71991109213900F940F9A139B92
:104530001C9913440B9A01FB03230B9323EAE373A7
:104540000693FFF7D7BA22AA0B99584601F0D0FD7F
:1045500000224FF07F53FCF70FF802460B46CDE9DF
:10456000102300220023FCF78FFE08B101232293C1
:10457000104B0B93C1E6109B0B93EEE5002963D122
:1045800030228DF892200DF19302303302F8013B76
:1045900024ABD31A1A93FFF796BA06F10F02D2B2E0
:1045A0000121FFF74FBA00BF6C85000800003040C2
:1045B0000000E03F58850008159B384D002BB4BF24
:1045C0002D229DF88320364BB8BF8DF8832027F02D
:1045D0008007FEF790BD169BD31819440B916626F1
:1045E00045E60B99584600220023FCF74DFE0028B3
:1045F0007FF406AE079BC3F10103229301E6C3F1EA
:1046000001031A4422EAE2730B9206936726B0E58F
:1046100019F0010F3FF462AAFFF75CBA079A09F09C
:10462000010959EA020304D10123069366260B937C
:104630009FE5169B01331A4422EAE2730B9206931C
:10464000662696E50D90BCE60DF192029DE70E9B65
:104650009AF80160924653F8042B0E9342EAE272F4
:104660000792FEF74FBB00230F9313935EE7079C5F
:104670000DE70C998B8943F0400213468A81FEF7BF
:104680006ABC02231A93FFF71EBA0A9A0C2313601E
:104690004FF0FF330893FEF765BC00BF508500085C
:1046A00054850008024B13B1024800F005B870476A
:1046B00000000000AD560008002301461A461846C7
:1046C00001F0FCBD2DE9F04F03690C69A34283B0F2
:1046D000C0F28680013C01F11405A30000F114082A
:1046E000009355F8243058F8242001338A469A4222
:1046F00008EB8401814605EB84070191B2FBF3F6D8
:1047000038D30023AE4640469B465EF8041B026841
:104710001FFA81FC06FB0C33090C4FEA134C06FB15
:1047200001CC99B2ABEB01011FFA8CF311FA82F1C3
:10473000C3EB124202EB214289B241EA02417745C2
:1047400040F8041B4FEA1C434FEA224BDDD2009B8A
:1047500058F8033073B9019B043B984504D307E034
:10476000984504F1FF3403D253F80429002AF7D006
:10477000C9F810405146484601F092FB00282BDB57
:1047800001364046002355F8041BD0F800C08AB219
:104790009A1A0B0C12FA8CF2C3EB1C4303EB224364
:1047A00092B242EA0342AF4240F8042B4FEA23435D
:1047B000E9D258F8242008EB84036AB9043B9845F1
:1047C00004D307E0984504F1FF3403D253F80429D9
:1047D000002AF7D0C9F81040304603B0BDE8F08F8A
:1047E000002003B0BDE8F08F2DE9F04F016C99B0C7
:1047F00090469946CDE90489259D044641B1426C15
:104800004A60012393408B6001F0EEF8002323649B
:10481000B9F1000AB4BF012300232B60764BBCBF63
:104820002AF0004ACDF814A033EA0A0300F0AA8067
:10483000DDE904231046194600220023CDE90A01D0
:10484000FCF722FD074670B1249A01231360269BD2
:10485000002B00F0E48269481860431E039303981C
:1048600019B0BDE8F08F16AB019317AB009320464B
:10487000DDE90A2301F0DAFB5FEA1A56054640F04B
:104880009780DDE916763E4406F23240202840F358
:10489000B583C0F140000AFA00FA06F2124028FA85
:1048A00000F04AEA0000FBF7EDFD0123013EA1F113
:1048B000F8710F93524B0022FBF7A6FC48A3D3E9F3
:1048C0000023FBF759FE48A3D3E90023FBF79EFC26
:1048D000804630468946FBF7E5FD45A3D3E9002332
:1048E000FBF74AFE02460B4640464946FBF78EFC64
:1048F00080468946FCF710FD00228346002340468F
:104900004946FCF7CBFC002840F07C82BBF1160F37
:1049100000F26B823B4B03EBCB03D3E90023DDE9D1
:104920000A01FCF7BBFC002872D00023BE1B0E93CB
:10493000731E0BF1FF3B069300F15E820023099387
:10494000BBF1000F6BDA099BCDF81CB0A3EB0B0396
:104950000993CBF100030D93229B092B4FF0000B21
:1049600066D8052B40F34883043B22930026229B04
:10497000023B032B00F26886DFE813F05C04590465
:1049800050043304249A42F20F73CAF3130A1360DB
:104990005AEA08031AD1269B002B00F064861A4BB2
:1049A00003930833269A0398136019B0BDE8F08F7B
:1049B000DDE90A12C2F31303084643F07F510F9753
:1049C000A6F2FF36169F41F4401173E7269B002B99
:1049D00040F0EA830D4B039341E700BFAFF3008043
:1049E00061436F63A787D23FB3C8608B288AC63FF5
:1049F000FB799F501344D33F0000F07F8985000866
:104A00000000F83FF8860008B0850008AC85000873
:104A1000BE1B731E069300F185840E900990069BC1
:104A20005B44CDE9063B00230D93229B092B98D9CB
:104A30000023CDE9223301264FF0FF330C96089373
:104A4000089B129300216164204600F0A7FF0390A9
:104A5000002800F00186039B2364089B0E2B00F2C4
:104A60001381002E00F010810799002940F35C8427
:104A7000AE4B01F00F0203EBC2034FEA2118C90548
:104A8000D3E9006740F11484A94BDDE90A01D3E9B9
:104A90000823FBF79BFECDE9100108F00F084FF04B
:104AA000030AB8F1000F13D0DFF8849218F0010F59
:104AB00009D030463946D9E90023FBF75DFD0AF1FC
:104AC000010A06460F465FEA680809F10809EDD1B8
:104AD000DDE9100132463B46FBF778FE8046894609
:104AE0000E9B43B1934B002240464946FCF7D6FB50
:104AF000002840F030855046FBF7D4FC42464B4638
:104B0000FBF73AFD8C4B0022FBF780FBA1F15073C1
:104B1000CDE910011193089B002B00F09780079BB3
:104B20001493089B13930C9B002B00F0A584139AFD
:104B30007E4B8249039E03EBC20353E9022300200C
:104B4000FBF744FEDDE91023FBF75EFBCDE9100126
:104B500049464046FCF7E0FB0746FBF7A3FC02464C
:104B60000B4640464946FBF74FFB3037DDE9102343
:104B700006F8017B80468946FCF790FB002840F050
:104B80002985CDF854B00027DDE910AB1095139DB1
:104B900013942AE00137AF4280F22C85684B5046CF
:104BA00059460022FBF7E8FC654B002282468B4603
:104BB00040464946FBF7E0FC89468046FCF7ACFBE3
:104BC0000446FBF76FFC02460B4640464946FBF79E
:104BD0001BFB303406F8014B52465B468046894643
:104BE000FCF75CFB002840F0F38442464B465149F9
:104BF0000020FBF709FB52465B46FCF74FFB002801
:104C0000C8D0DDE91343109D039A079302E0964252
:104C100000F0C884B24616F8013D392BF7D00133B5
:104C2000DBB23370079B01330793C8E15046FBF7B3
:104C300039FC42464B46FBF79FFC3F4B0022FBF7FB
:104C4000E5FAA1F15073CDE9100111933D4B4046B7
:104C500049460022FBF7D8FADDE910894B46424667
:104C600006460F46FCF738FB8146002840F0AA8430
:104C7000DDE91001024601F1004330463946FCF7F8
:104C80000DFB002840F04583179B002BC0F28C8061
:104C9000079A0E2A00F38880244B03EBC203D3E962
:104CA00000AB239B002B1BDA089B002B18DC40F089
:104CB0002E83244B002250465946FBF75DFC0246EA
:104CC0000B46DDE90A01FCF7F3FADDF820904E46C9
:104CD000002800F0C782239BDDF80C80DF43C9E287
:104CE000DDE90A7852465B4638464146FBF76EFDE1
:104CF000FCF712FB81460990FBF7D4FB52465B465A
:104D0000FBF73AFC039E0B46024641463846FBF74A
:104D10007BFA09F1300306F8013B089B012B00F0F8
:104D20005C830694012704951C462AE0F886000857
:104D3000D08600080000F03F00001C400000E03F6B
:104D4000000024400000144052465B46404649465D
:104D5000FBF73CFDFCF7E0FA0546FBF7A3FB5246E8
:104D60005B46FBF709FC01370B46024649464046C5
:104D7000FBF74AFA05F13003A74206F8013B00F0C1
:104D80002983AC4B0022FBF7F7FB0022002380466F
:104D90008946FCF779FA0028D6D0049D069C079B2B
:104DA00001330793B2460AE10C9A002A3DD0229AB9
:104DB000012A40F39C82089B03F1FF380D9B434579
:104DC000C0F26D82A3EB0808089B002BC0F23C8365
:104DD000069A1A440692099A17461A440992012122
:104DE000204600F0A9FE064623E00123BE1B0E93D9
:104DF000731E06937FF5A2ADC6F10103099300234C
:104E000006939DE55846FBF74DFB42464B46FCF7A3
:104E10003BFA00287FF47AAD0BF1FF3B76E5864B39
:104E20000393039819B0BDE8F08FDDF83480099F33
:104E30000C9E002F0CDD069900290B4608DD099A0F
:104E4000B942A8BF3B46D21AFF1ACB1A0992069361
:104E50000D9BDBB10C9B002B00F05D82B8F1000FC5
:104E60000FDD31464246204600F042FF2A46014609
:104E70000646204600F08EFE29460546204600F0F4
:104E8000B3FD0D9BB3EB080240F0D8820121204610
:104E900000F052FEBBF1000F814600F3B480229B6C
:104EA000012B40F386814FF0000A0120BBF1000F77
:104EB00040F0B580069A104410F01F0000F0938077
:104EC000C0F12003042B40F3D283099BC0F11C00E6
:104ED00003440244099307440692099B002B05DD15
:104EE00029461A46204600F063FF0546069B002B24
:104EF00005DD49461A46204600F05AFF81460E9BC2
:104F0000002B40F03681089B002B40F31D810C9B49
:104F1000002B40F0A080079B01330793DDF80C8045
:104F2000DDF820A0012707E0294600230A222046B9
:104F300000F064FD0137054649462846FFF7C2FBED
:104F4000574500F1300308F8013BEDDB089A002AD1
:104F5000C8BF9346039AD8BF4FF0010B9344002774
:104F6000294601222046049300F022FF49460546C7
:104F700000F096FF002840F3A8811BF8013C039A3B
:104F80000BF1FF3B04E05A4500F0AA811BF8013DFC
:104F9000392B0BF1010AF6D001338BF8003049466A
:104FA000204600F021FD56B12FB1B74203D039465B
:104FB000204600F019FD3146204600F015FD294637
:104FC000204600F011FD00238AF80030249B079A48
:104FD0001A60269B002B3FF442AC0398C3F800A054
:104FE00019B0BDE8F08F1C20099B03440993069B70
:104FF00003440744069370E70126B8E4C0F120009B
:1050000008FA00F04FE401465A46204600F070FED0
:10501000229B012B814640F3B3814FF0000AD9F85F
:10502000103009EB8303186900F038FDC0F120004F
:1050300040E700BF00002440888500083146002377
:105040000A22204600F0DAFC129B002B064640F3B1
:10505000E782CDE90783002F00F31A81BAF1000F30
:1050600040F0D581B046049B039F089903F00102EC
:105070007B1E1944229B0C92134309910A934946C3
:105080002846FFF71FFB31468346284600F008FFFD
:10509000424649468246204600F022FFC268014649
:1050A0000BF13003002A42D106902846089300F005
:1050B000F7FE06990490204600F096FC049A089B9F
:1050C0001AB90A99002900F09B82BAF1000FC0F2C8
:1050D000638122994AEA010A0C9951EA0A0100F017
:1050E0005B81002A00F3B481099A3B7007F1010A41
:1050F0009742D34600F0B281294600230A22204677
:1051000000F07CFC4645054631464FF000034FF069
:105110000A02204612D000F071FC414606460023E8
:105120000A22204600F06AFC57468046A7E7204640
:10513000049300F059FC049B0122C6E700F05EFCDA
:105140005746064680469AE7229B022B79DC0C9B49
:10515000002B80D1079B4946013328460793FFF770
:10516000B1FADDF80CB000F130030BF8013B002779
:10517000F6E64946284600F093FE0028BFF6C3AE87
:10518000294600230A22204600F038FC079B03F141
:10519000FF380C9B0546002B7FF450AF129B002B71
:1051A00040F335820893B9E6AF4B03930333FFF71F
:1051B000F9BBDDE9041200297FF475AEC2F31303D5
:1051C000002B7FF470AEA94B1340002B00F0FE8142
:1051D000099B01330993069B013306934FF0010AA3
:1051E00063E601230C93239B079A13441293013324
:1051F000012B1F460893B8BF01270021172F6164B8
:105200007FF722AC012204235B0003F11400B842B3
:10521000114602F10102F7D9616415E401230C93F0
:10522000239B002B4CDD129308931F46E5E70023D8
:105230000C93D8E700230C93F2E7129BCDF81C8067
:105240000893089B002B7FF446AD49460522204673
:1052500000F0D4FB01468146284600F021FE0028DC
:105260007FF739AD0398079F3123804600F8013B53
:10527000013703904946204600F0B6FB7B1CDDF861
:105280000CA00793CDF80C80002E7FF494AE96E628
:1052900031463A46204600F08BFD0646DEE60D9B81
:1052A000CDF83480A8EB03039B444FF000088BE556
:1052B000DDE90A234FF0020ACDE91023FFF7F1BB25
:1052C000012323930893FFF7BBBB03D1049BDB07A8
:1052D0003FF553AEDA461BF8013D302BFAD05EE6BF
:1052E000079B039A013307933123137057E60F9AF4
:1052F000002A00F0268103F23343069ADDF8348059
:105300001A440692099A17461A44099267E54FF023
:1053100000094E46DFE429460D9A204600F0E8FCDD
:105320000546B3E50E9067E500F00F81079A504BF4
:10533000564206F00F0203EBC203D3E90023DDE976
:105340000A01FBF719F936118046894600F0718190
:10535000484F00234FF0020AF20706D5D7E9002391
:10536000FBF70AF90AF1010A0123761007F1080791
:10537000F2D1002B3FF4B4AB80468946FFF7B0BBB7
:10538000049B002B7FF449AEDDE90412C2F3130342
:10539000002B3FF418AF40E6002A12DD2946012217
:1053A0002046049300F004FD4946054600F078FDD0
:1053B0000028049B40F31881392B00F0F9800BF191
:1053C0003103BA460AF8013B079B0133374607937E
:1053D0004646E4E50995069C049D02460B46FAF70D
:1053E00015FF52465B4680468946FBF775FF60B95C
:1053F00052465B4640464946FBF746FF00283FF4CD
:10540000CEAC099BD9077FF5CAAC039A02E4716858
:10541000204600F0C3FA0746002800F00E813369E9
:1054200002339A0006F10C010C30FBF767FD394698
:105430000122204600F0BCFC804614E629462046A6
:1054400000F056FC054621E5DDE908239F1AC6E475
:10545000392B00F0AD80BA460133B3E7079A013229
:105460003746079246467BE5AC8500080000F07F92
:10547000F8860008D0860008DDF84CA0844901EBCE
:10548000CA01DDE9102351E90201FBF775F8CDE906
:10549000100149464046FBF73FFF0646FBF702F87E
:1054A0000B46024649464046FAF7AEFE039F534676
:1054B0003036012B07F8016B8046894600F0AE803C
:1054C000139E039B1E44734B002240464946FBF744
:1054D00053F889468046FBF71FFF8246FAF7E2FF42
:1054E0000AF1300A02460B4640464946FAF78CFE5E
:1054F00007F801ABB74280468946E4D1664B0022EB
:10550000DDE91001FAF782FE42464B46FBF7C6FE84
:10551000002864D1DDE910235F490020FAF774FE0A
:1055200042464B46FBF7D8FE00283FF4ADABB246EF
:10553000013E1AF8013C302BF9D0149B013307933C
:105540003DE5169BC3F13603D7E6DDE90A894FF046
:10555000020AFFF7C5BA089B002B3FF467AB129B0A
:10556000002B7FF791AB079A013ACDE91332404601
:10557000484B00224946FAF7FFFF804689460AF168
:105580000100FAF78FFF42464B46FAF7F5FF434B0F
:105590000022FAF73BFEA1F15073CDE910011193FF
:1055A000FFF7C1BA079B013307933123FFF739BBDC
:1055B000079BBB4601330793392337460BF8013B62
:1055C0004646DCE44FF000094E464BE69A466CE452
:1055D000109D139C149B01330793B246EFE4149B78
:1055E000039A0793FFF716BB7FF4EBAEDA077FF55C
:1055F000E8AEE1E6DDF854B0109D139CFFF744BB24
:10560000392BD5D0BAF1000F3FF7D9AED9E6229B9E
:10561000022B3FF712AECDF81C809BE53E466DE7AE
:10562000229B022B3FF709AE129BCDF81C800893FA
:1056300011E54FF0020AFFF753BA194B19483A46E1
:1056400040F2EA2100F080FE0026666431462046E2
:1056500000F0A4F9039078B9114B124800224FF4DE
:10566000D57100F071FE104B0393FFF7F8B83FF4CB
:1056700034ACC0F13C00B7E4039B236401224FF03B
:10568000FF33239612930C920893FFF7FDBA00BFE5
:10569000F8860008000024400000E03F00001C40A5
:1056A000BC850008D0850008B085000838B5084BD7
:1056B000084D5B1B9C1007D0043B1D44013C55F872
:1056C00004399847002CF9D1BDE8384002F0CCBE2F
:1056D0005489000850890008F8B5244F0C46064646
:1056E000FDF784FABA685568C4F57E630F3325F078
:1056F00003052B4423F47F6323F00F03A3F58054A9
:10570000B4F5805F07DB00213046FDF77BFABB680C
:105710002B44984204D03046FDF76EFA0020F8BDC5
:1057200061423046FDF76EFA01300DD0104ABB6879
:105730002D1B45F001055D60136830461B1B13608F
:10574000FDF75AFA0120F8BD00213046FDF75AFA5C
:10575000BA68831A0F2BDEDD43F001035360054B5B
:1057600003491B68C01A0860D5E700BF3804002051
:10577000A00A002040080020002961D0F8B50C469E
:105780000646FDF733FA54F8042C7B4FA4F10805C4
:1057900022F0010105EB010CB868DCF8043060452B
:1057A00023F0030300F08B80D207CCF8043032D40E
:1057B00054F8082CAD1A1144AA6807F10800824277
:1057C0006AD00CEB0304D4F804E0EC68D4601EF05B
:1057D000010FA26000F0978041F001036B60CCF8EC
:1057E0000010B1F5007F35D27A68CB084809012155
:1057F000013381401143796007EBC30257F833103E
:10580000083AC5E9021247F83350CD603046BDE88A
:10581000F840FDF7F1B90CEB03025268D00710D441
:10582000194407F10800DCF80830834273D0DCF833
:105830000C20DA60936041F001036B606950D0E79F
:10584000704741F00103B1F5007F44F8043CCCF807
:105850000010C9D3B1F5206F4FEA512348D28B090C
:1058600003F1390003F13802C300F818FB58083877
:10587000984259D05A6822F003028A4202D99B68A2
:105880009842F7D1D868C5E902308560DD603046BE
:10589000BDE8F840FDF7B0B90CEB03025268D2073F
:1058A00063D40B44DCE90212CA60916043F0010248
:1058B0006A603046EB50BDE8F840FDF79DB90B44F7
:1058C000D10707D454F8082CAD1A1344D5E90212B5
:1058D000CA60916043F001026A60284ABD601268A4
:1058E0009A4293D8264B30461968FFF7F5FE8DE7AC
:1058F000142B0AD9542B1FD80B0B03F16F0003F1A3
:105900006E02C300B1E719448DE703F15C0003F1B7
:105910005B02C300A9E741F00103C7E90455C5E9EB
:1059200002006B60695071E779689210012404FAF3
:1059300002F20A437A60A6E7B3F5AA7F06D8CB0B3A
:1059400003F1780003F17702C3008EE740F254526E
:10595000934206D88B0C03F17D0003F17C02C30057
:1059600083E74FF47E737E227FE741F001036B6093
:10597000CCF800104AE700BF38040020440800209B
:10598000D00A0020004870473C090020704700BF43
:10599000704700BF704700BF704700BFC36C70B551
:1059A00005460C464BB153F8240080B1026843F819
:1059B00024200023C0E9033370BD2122042100F01C
:1059C000E3FC0346E8640028EDD1002070BD01210E
:1059D00001FA04F6721D9200284600F0D5FC00285A
:1059E000F3D0C0E90146E4E731B1C36C4A6853F82B
:1059F0002200086043F82210704700BF2DE9F041F3
:105A00000D6907460E461C4601F1140E0020DEF813
:105A100000108BB202FB03434FEA134C090C02FB4C
:105A200001CC01309BB203EB0C4385424EF8043BA2
:105A30004FEA1C44EBDC3CB1B368AB4207DD06EB3C
:105A4000850301355C6135613046BDE8F0817168E0
:105A500038460131FFF7A2FF8046A8B13269023211
:105A600006F10C0192000C30FBF748FAFB6C7268EF
:105A700053F82210316043F82260464606EB850356
:105A800001355C613561DFE7024B03484246B521D1
:105A900000F05AFCBC85000850860008020C120475
:105AA0000346CAB90304102013F07F4F04BF1B0242
:105AB000083013F0704F04BF1B01043013F0404F47
:105AC00004BF9B000230002B05DB13F0804F00F178
:105AD000010008BF202070470020E5E70368024668
:105AE00013F0070007D0D9071DD498071FD55B080E
:105AF00013600120704799B209B91B0C1020D9B26C
:105B000009B908301B0A190704BF1B09043099079B
